{
  "_format": "hh-sol-artifact-1",
  "contractName": "AMMWrapper",
  "sourceName": "contracts/ammWrapper/AMMWrapper.sol",
  "abi": [
    {
      "anonymous": false,
      "inputs": [
        {
          "indexed": true,
          "internalType": "address",
          "name": "makerAddress",
          "type": "address"
        },
        {
          "indexed": true,
          "internalType": "address",
          "name": "assetAddress",
          "type": "address"
        },
        {
          "indexed": false,
          "internalType": "int128",
          "name": "index",
          "type": "int128"
        }
      ],
      "name": "CurveTokenAdded",
      "type": "event"
    },
    {
      "anonymous": false,
      "inputs": [
        {
          "indexed": false,
          "internalType": "address",
          "name": "spender",
          "type": "address"
        },
        {
          "indexed": false,
          "internalType": "address",
          "name": "fromAssetAddress",
          "type": "address"
        },
        {
          "indexed": false,
          "internalType": "address",
          "name": "toAssetAddress",
          "type": "address"
        },
        {
          "indexed": false,
          "internalType": "uint256",
          "name": "takerAssetAmount",
          "type": "uint256"
        },
        {
          "indexed": false,
          "internalType": "uint256",
          "name": "makerAssetAmount",
          "type": "uint256"
        }
      ],
      "name": "Swapped",
      "type": "event"
    },
    {
      "inputs": [],
      "name": "UNISWAP_V1_FACTORY_ADDRESS",
      "outputs": [
        {
          "internalType": "address",
          "name": "",
          "type": "address"
        }
      ],
      "stateMutability": "view",
      "type": "function"
    },
    {
      "inputs": [],
      "name": "UNISWAP_V2_ROUTER_02_ADDRESS",
      "outputs": [
        {
          "internalType": "address",
          "name": "",
          "type": "address"
        }
      ],
      "stateMutability": "view",
      "type": "function"
    },
    {
      "inputs": [
        {
          "internalType": "address",
          "name": "",
          "type": "address"
        },
        {
          "internalType": "address",
          "name": "",
          "type": "address"
        }
      ],
      "name": "curveTokenIndexes",
      "outputs": [
        {
          "internalType": "int128",
          "name": "",
          "type": "int128"
        }
      ],
      "stateMutability": "view",
      "type": "function"
    },
    {
      "inputs": [
        {
          "internalType": "address[]",
          "name": "_makerAddresses",
          "type": "address[]"
        },
        {
          "internalType": "address",
          "name": "_fromAssetAddress",
          "type": "address"
        },
        {
          "internalType": "address",
          "name": "_toAssetAddress",
          "type": "address"
        },
        {
          "internalType": "uint256",
          "name": "_makerAssetAmount",
          "type": "uint256"
        }
      ],
      "name": "getBestInAmount",
      "outputs": [
        {
          "internalType": "address",
          "name": "bestMaker",
          "type": "address"
        },
        {
          "internalType": "uint256",
          "name": "bestAmount",
          "type": "uint256"
        }
      ],
      "stateMutability": "view",
      "type": "function"
    },
    {
      "inputs": [
        {
          "internalType": "address[]",
          "name": "_makerAddresses",
          "type": "address[]"
        },
        {
          "internalType": "address",
          "name": "_fromAssetAddress",
          "type": "address"
        },
        {
          "internalType": "address",
          "name": "_toAssetAddress",
          "type": "address"
        },
        {
          "internalType": "uint256",
          "name": "_takerAssetAmount",
          "type": "uint256"
        }
      ],
      "name": "getBestOutAmount",
      "outputs": [
        {
          "internalType": "address",
          "name": "bestMaker",
          "type": "address"
        },
        {
          "internalType": "uint256",
          "name": "bestAmount",
          "type": "uint256"
        }
      ],
      "stateMutability": "view",
      "type": "function"
    },
    {
      "inputs": [
        {
          "internalType": "address",
          "name": "_makerAddress",
          "type": "address"
        },
        {
          "internalType": "address",
          "name": "_fromAssetAddress",
          "type": "address"
        },
        {
          "internalType": "address",
          "name": "_toAssetAddress",
          "type": "address"
        },
        {
          "internalType": "uint256",
          "name": "_takerAssetAmount",
          "type": "uint256"
        }
      ],
      "name": "getMakerOutAmount",
      "outputs": [
        {
          "internalType": "uint256",
          "name": "",
          "type": "uint256"
        }
      ],
      "stateMutability": "view",
      "type": "function"
    },
    {
      "inputs": [
        {
          "internalType": "address",
          "name": "_makerAddress",
          "type": "address"
        },
        {
          "internalType": "address",
          "name": "_fromAssetAddress",
          "type": "address"
        },
        {
          "internalType": "address",
          "name": "_toAssetAddress",
          "type": "address"
        },
        {
          "internalType": "uint256",
          "name": "_makerAssetAmount",
          "type": "uint256"
        }
      ],
      "name": "getTakerInAmount",
      "outputs": [
        {
          "internalType": "uint256",
          "name": "",
          "type": "uint256"
        }
      ],
      "stateMutability": "view",
      "type": "function"
    },
    {
      "inputs": [
        {
          "internalType": "address",
          "name": "_makerAddress",
          "type": "address"
        },
        {
          "internalType": "address[]",
          "name": "_assetAddresses",
          "type": "address[]"
        }
      ],
      "name": "setCurveTokenIndex",
      "outputs": [],
      "stateMutability": "nonpayable",
      "type": "function"
    },
    {
      "inputs": [
        {
          "internalType": "address",
          "name": "_makerAddress",
          "type": "address"
        },
        {
          "internalType": "address",
          "name": "_fromAssetAddress",
          "type": "address"
        },
        {
          "internalType": "address",
          "name": "_toAssetAddress",
          "type": "address"
        },
        {
          "internalType": "uint256",
          "name": "_takerAssetAmount",
          "type": "uint256"
        },
        {
          "internalType": "uint256",
          "name": "_makerAssetAmount",
          "type": "uint256"
        },
        {
          "internalType": "address",
          "name": "_spender",
          "type": "address"
        },
        {
          "internalType": "uint256",
          "name": "deadline",
          "type": "uint256"
        }
      ],
      "name": "trade",
      "outputs": [
        {
          "internalType": "uint256",
          "name": "",
          "type": "uint256"
        }
      ],
      "stateMutability": "payable",
      "type": "function"
    },
    {
      "stateMutability": "payable",
      "type": "receive"
    }
  ],
  "bytecode": "0x608060405234801561001057600080fd5b506001600081905550614c84806100286000396000f3fe60806040526004361061008a5760003560e01c8063a673e16311610059578063a673e16314610444578063a94c12bc146104f3578063bc29903314610534578063c477f389146105e3578063e0a6b5bc1461062457610091565b806319cff21e146100965780634bbf902b146101d657806392612a4414610316578063a48573641461039e57610091565b3661009157005b600080fd5b3480156100a257600080fd5b506101a3600480360360808110156100b957600080fd5b81019080803590602001906401000000008111156100d657600080fd5b8201836020820111156100e857600080fd5b8035906020019184602083028401116401000000008311171561010a57600080fd5b919080806020026020016040519081016040528093929190818152602001838360200280828437600081840152601f19601f820116905080830192505050505050509192919290803573ffffffffffffffffffffffffffffffffffffffff169060200190929190803573ffffffffffffffffffffffffffffffffffffffff169060200190929190803590602001909291905050506106fa565b604051808373ffffffffffffffffffffffffffffffffffffffff1681526020018281526020019250505060405180910390f35b3480156101e257600080fd5b506102e3600480360360808110156101f957600080fd5b810190808035906020019064010000000081111561021657600080fd5b82018360208201111561022857600080fd5b8035906020019184602083028401116401000000008311171561024a57600080fd5b919080806020026020016040519081016040528093929190818152602001838360200280828437600081840152601f19601f820116905080830192505050505050509192919290803573ffffffffffffffffffffffffffffffffffffffff169060200190929190803573ffffffffffffffffffffffffffffffffffffffff16906020019092919080359060200190929190505050610782565b604051808373ffffffffffffffffffffffffffffffffffffffff1681526020018281526020019250505060405180910390f35b34801561032257600080fd5b506103856004803603604081101561033957600080fd5b81019080803573ffffffffffffffffffffffffffffffffffffffff169060200190929190803573ffffffffffffffffffffffffffffffffffffffff1690602001909291905050506107eb565b6040518082600f0b815260200191505060405180910390f35b3480156103aa57600080fd5b50610442600480360360408110156103c157600080fd5b81019080803573ffffffffffffffffffffffffffffffffffffffff169060200190929190803590602001906401000000008111156103fe57600080fd5b82018360208201111561041057600080fd5b8035906020019184602083028401116401000000008311171561043257600080fd5b909192939192939050505061081a565b005b34801561045057600080fd5b506104dd6004803603608081101561046757600080fd5b81019080803573ffffffffffffffffffffffffffffffffffffffff169060200190929190803573ffffffffffffffffffffffffffffffffffffffff169060200190929190803573ffffffffffffffffffffffffffffffffffffffff16906020019092919080359060200190929190505050610996565b6040518082815260200191505060405180910390f35b3480156104ff57600080fd5b50610508611879565b604051808273ffffffffffffffffffffffffffffffffffffffff16815260200191505060405180910390f35b34801561054057600080fd5b506105cd6004803603608081101561055757600080fd5b81019080803573ffffffffffffffffffffffffffffffffffffffff169060200190929190803573ffffffffffffffffffffffffffffffffffffffff169060200190929190803573ffffffffffffffffffffffffffffffffffffffff16906020019092919080359060200190929190505050611891565b6040518082815260200191505060405180910390f35b3480156105ef57600080fd5b506105f8612774565b604051808273ffffffffffffffffffffffffffffffffffffffff16815260200191505060405180910390f35b6106e4600480360360e081101561063a57600080fd5b81019080803573ffffffffffffffffffffffffffffffffffffffff169060200190929190803573ffffffffffffffffffffffffffffffffffffffff169060200190929190803573ffffffffffffffffffffffffffffffffffffffff1690602001909291908035906020019092919080359060200190929190803573ffffffffffffffffffffffffffffffffffffffff1690602001909291908035906020019092919050505061278c565b6040518082815260200191505060405180910390f35b6000807fffffffffffffffffffffffffffffffffffffffffffffffffffffffffffffffff905060008651905060005b8181101561077757600088828151811061073f57fe5b602002602001015190506000610757828a8a8a611891565b905084811015610768578094508195505b50508080600101915050610729565b505094509492505050565b6000806000905060008651905060005b818110156107e05760008882815181106107a857fe5b6020026020010151905060006107c0828a8a8a610996565b9050848111156107d1578094508195505b50508080600101915050610792565b505094509492505050565b60016020528160005260406000206020528060005260406000206000915091509054906101000a9004600f0b81565b600082829050905060005b81600f0b81600f0b121561098f576000848483600f0b81811061084457fe5b9050602002013573ffffffffffffffffffffffffffffffffffffffff16905081600160008873ffffffffffffffffffffffffffffffffffffffff1673ffffffffffffffffffffffffffffffffffffffff16815260200190815260200160002060008373ffffffffffffffffffffffffffffffffffffffff1673ffffffffffffffffffffffffffffffffffffffff16815260200190815260200160002060006101000a8154816fffffffffffffffffffffffffffffffff0219169083600f0b6fffffffffffffffffffffffffffffffff1602179055508073ffffffffffffffffffffffffffffffffffffffff168673ffffffffffffffffffffffffffffffffffffffff167f57a4907fa7743486c4b6a4645303b21f5ec43835d1d0737e36d46d286bad2154846040518082600f0b815260200191505060405180910390a3508080600101915050610825565b5050505050565b6000806000600160008873ffffffffffffffffffffffffffffffffffffffff1673ffffffffffffffffffffffffffffffffffffffff16815260200190815260200160002060008773ffffffffffffffffffffffffffffffffffffffff1673ffffffffffffffffffffffffffffffffffffffff16815260200190815260200160002060009054906101000a9004600f0b600f0b141580610ac257506000600160008873ffffffffffffffffffffffffffffffffffffffff1673ffffffffffffffffffffffffffffffffffffffff16815260200190815260200160002060008673ffffffffffffffffffffffffffffffffffffffff1673ffffffffffffffffffffffffffffffffffffffff16815260200190815260200160002060009054906101000a9004600f0b600f0b14155b15610c94576000600160008873ffffffffffffffffffffffffffffffffffffffff1673ffffffffffffffffffffffffffffffffffffffff16815260200190815260200160002060008773ffffffffffffffffffffffffffffffffffffffff1673ffffffffffffffffffffffffffffffffffffffff16815260200190815260200160002060009054906101000a9004600f0b90506000600160008973ffffffffffffffffffffffffffffffffffffffff1673ffffffffffffffffffffffffffffffffffffffff16815260200190815260200160002060008773ffffffffffffffffffffffffffffffffffffffff1673ffffffffffffffffffffffffffffffffffffffff16815260200190815260200160002060009054906101000a9004600f0b905060008890508073ffffffffffffffffffffffffffffffffffffffff166307211ef78484896040518463ffffffff1660e01b81526004018084600f0b815260200183600f0b8152602001828152602001935050505060206040518083038186803b158015610c4f57600080fd5b505afa158015610c63573d6000803e3d6000fd5b505050506040513d6020811015610c7957600080fd5b8101908080519060200190929190505050935050505061186d565b73c0a47dfe034b400b47bdad5fecda2621de6c4d9573ffffffffffffffffffffffffffffffffffffffff168673ffffffffffffffffffffffffffffffffffffffff1614156112dc57600073c0a47dfe034b400b47bdad5fecda2621de6c4d959050600073ffffffffffffffffffffffffffffffffffffffff168673ffffffffffffffffffffffffffffffffffffffff161480610d6f575073eeeeeeeeeeeeeeeeeeeeeeeeeeeeeeeeeeeeeeee73ffffffffffffffffffffffffffffffffffffffff168673ffffffffffffffffffffffffffffffffffffffff16145b15610eae5760008173ffffffffffffffffffffffffffffffffffffffff166306f2bf62876040518263ffffffff1660e01b8152600401808273ffffffffffffffffffffffffffffffffffffffff16815260200191505060206040518083038186803b158015610ddd57600080fd5b505afa158015610df1573d6000803e3d6000fd5b505050506040513d6020811015610e0757600080fd5b810190808051906020019092919050505090508073ffffffffffffffffffffffffffffffffffffffff1663cd7724c3866040518263ffffffff1660e01b81526004018082815260200191505060206040518083038186803b158015610e6b57600080fd5b505afa158015610e7f573d6000803e3d6000fd5b505050506040513d6020811015610e9557600080fd5b81019080805190602001909291905050509250506112d6565b600073ffffffffffffffffffffffffffffffffffffffff168573ffffffffffffffffffffffffffffffffffffffff161480610f28575073eeeeeeeeeeeeeeeeeeeeeeeeeeeeeeeeeeeeeeee73ffffffffffffffffffffffffffffffffffffffff168573ffffffffffffffffffffffffffffffffffffffff16145b156110675760008173ffffffffffffffffffffffffffffffffffffffff166306f2bf62886040518263ffffffff1660e01b8152600401808273ffffffffffffffffffffffffffffffffffffffff16815260200191505060206040518083038186803b158015610f9657600080fd5b505afa158015610faa573d6000803e3d6000fd5b505050506040513d6020811015610fc057600080fd5b810190808051906020019092919050505090508073ffffffffffffffffffffffffffffffffffffffff166395b68fe7866040518263ffffffff1660e01b81526004018082815260200191505060206040518083038186803b15801561102457600080fd5b505afa158015611038573d6000803e3d6000fd5b505050506040513d602081101561104e57600080fd5b81019080805190602001909291905050509250506112d5565b60008173ffffffffffffffffffffffffffffffffffffffff166306f2bf62886040518263ffffffff1660e01b8152600401808273ffffffffffffffffffffffffffffffffffffffff16815260200191505060206040518083038186803b1580156110d057600080fd5b505afa1580156110e4573d6000803e3d6000fd5b505050506040513d60208110156110fa57600080fd5b8101908080519060200190929190505050905060008273ffffffffffffffffffffffffffffffffffffffff166306f2bf62886040518263ffffffff1660e01b8152600401808273ffffffffffffffffffffffffffffffffffffffff16815260200191505060206040518083038186803b15801561117657600080fd5b505afa15801561118a573d6000803e3d6000fd5b505050506040513d60208110156111a057600080fd5b8101908080519060200190929190505050905060008273ffffffffffffffffffffffffffffffffffffffff166395b68fe7886040518263ffffffff1660e01b81526004018082815260200191505060206040518083038186803b15801561120657600080fd5b505afa15801561121a573d6000803e3d6000fd5b505050506040513d602081101561123057600080fd5b810190808051906020019092919050505090508173ffffffffffffffffffffffffffffffffffffffff1663cd7724c3826040518263ffffffff1660e01b81526004018082815260200191505060206040518083038186803b15801561129457600080fd5b505afa1580156112a8573d6000803e3d6000fd5b505050506040513d60208110156112be57600080fd5b810190808051906020019092919050505094505050505b5b5061186c565b737a250d5630b4cf539739df2c5dacb4c659f2488d73ffffffffffffffffffffffffffffffffffffffff168673ffffffffffffffffffffffffffffffffffffffff1614156117fd576000737a250d5630b4cf539739df2c5dacb4c659f2488d90506060600267ffffffffffffffff8111801561135757600080fd5b506040519080825280602002602001820160405280156113865781602001602082028036833780820191505090505b509050600073ffffffffffffffffffffffffffffffffffffffff168773ffffffffffffffffffffffffffffffffffffffff161480611403575073eeeeeeeeeeeeeeeeeeeeeeeeeeeeeeeeeeeeeeee73ffffffffffffffffffffffffffffffffffffffff168773ffffffffffffffffffffffffffffffffffffffff16145b156114b15773c02aaa39b223fe8d0a0e5c4f27ead9083c756cc28160008151811061142a57fe5b602002602001019073ffffffffffffffffffffffffffffffffffffffff16908173ffffffffffffffffffffffffffffffffffffffff1681525050858160018151811061147257fe5b602002602001019073ffffffffffffffffffffffffffffffffffffffff16908173ffffffffffffffffffffffffffffffffffffffff168152505061166b565b600073ffffffffffffffffffffffffffffffffffffffff168673ffffffffffffffffffffffffffffffffffffffff16148061152b575073eeeeeeeeeeeeeeeeeeeeeeeeeeeeeeeeeeeeeeee73ffffffffffffffffffffffffffffffffffffffff168673ffffffffffffffffffffffffffffffffffffffff16145b156115d957868160008151811061153e57fe5b602002602001019073ffffffffffffffffffffffffffffffffffffffff16908173ffffffffffffffffffffffffffffffffffffffff168152505073c02aaa39b223fe8d0a0e5c4f27ead9083c756cc28160018151811061159a57fe5b602002602001019073ffffffffffffffffffffffffffffffffffffffff16908173ffffffffffffffffffffffffffffffffffffffff168152505061166a565b86816000815181106115e757fe5b602002602001019073ffffffffffffffffffffffffffffffffffffffff16908173ffffffffffffffffffffffffffffffffffffffff1681525050858160018151811061162f57fe5b602002602001019073ffffffffffffffffffffffffffffffffffffffff16908173ffffffffffffffffffffffffffffffffffffffff16815250505b5b60608273ffffffffffffffffffffffffffffffffffffffff1663d06ca61f87846040518363ffffffff1660e01b81526004018083815260200180602001828103825283818151815260200191508051906020019060200280838360005b838110156116e35780820151818401526020810190506116c8565b50505050905001935050505060006040518083038186803b15801561170757600080fd5b505afa15801561171b573d6000803e3d6000fd5b505050506040513d6000823e3d601f19601f82011682018060405250602081101561174557600080fd5b810190808051604051939291908464010000000082111561176557600080fd5b8382019150602082018581111561177b57600080fd5b825186602082028301116401000000008211171561179857600080fd5b8083526020830192505050908051906020019060200280838360005b838110156117cf5780820151818401526020810190506117b4565b505050509050016040525050509050806001815181106117eb57fe5b6020026020010151935050505061186b565b6040517f08c379a00000000000000000000000000000000000000000000000000000000081526004018080602001828103825260188152602001807f556e737570706f72746564206d616b657241646472657373000000000000000081525060200191505060405180910390fd5b5b5b80915050949350505050565b737a250d5630b4cf539739df2c5dacb4c659f2488d81565b6000806000600160008873ffffffffffffffffffffffffffffffffffffffff1673ffffffffffffffffffffffffffffffffffffffff16815260200190815260200160002060008773ffffffffffffffffffffffffffffffffffffffff1673ffffffffffffffffffffffffffffffffffffffff16815260200190815260200160002060009054906101000a9004600f0b600f0b1415806119bd57506000600160008873ffffffffffffffffffffffffffffffffffffffff1673ffffffffffffffffffffffffffffffffffffffff16815260200190815260200160002060008673ffffffffffffffffffffffffffffffffffffffff1673ffffffffffffffffffffffffffffffffffffffff16815260200190815260200160002060009054906101000a9004600f0b600f0b14155b15611b8f576000600160008873ffffffffffffffffffffffffffffffffffffffff1673ffffffffffffffffffffffffffffffffffffffff16815260200190815260200160002060008773ffffffffffffffffffffffffffffffffffffffff1673ffffffffffffffffffffffffffffffffffffffff16815260200190815260200160002060009054906101000a9004600f0b90506000600160008973ffffffffffffffffffffffffffffffffffffffff1673ffffffffffffffffffffffffffffffffffffffff16815260200190815260200160002060008773ffffffffffffffffffffffffffffffffffffffff1673ffffffffffffffffffffffffffffffffffffffff16815260200190815260200160002060009054906101000a9004600f0b905060008890508073ffffffffffffffffffffffffffffffffffffffff166307211ef78385896040518463ffffffff1660e01b81526004018084600f0b815260200183600f0b8152602001828152602001935050505060206040518083038186803b158015611b4a57600080fd5b505afa158015611b5e573d6000803e3d6000fd5b505050506040513d6020811015611b7457600080fd5b81019080805190602001909291905050509350505050612768565b73c0a47dfe034b400b47bdad5fecda2621de6c4d9573ffffffffffffffffffffffffffffffffffffffff168673ffffffffffffffffffffffffffffffffffffffff1614156121d757600073c0a47dfe034b400b47bdad5fecda2621de6c4d959050600073ffffffffffffffffffffffffffffffffffffffff168673ffffffffffffffffffffffffffffffffffffffff161480611c6a575073eeeeeeeeeeeeeeeeeeeeeeeeeeeeeeeeeeeeeeee73ffffffffffffffffffffffffffffffffffffffff168673ffffffffffffffffffffffffffffffffffffffff16145b15611da95760008173ffffffffffffffffffffffffffffffffffffffff166306f2bf62876040518263ffffffff1660e01b8152600401808273ffffffffffffffffffffffffffffffffffffffff16815260200191505060206040518083038186803b158015611cd857600080fd5b505afa158015611cec573d6000803e3d6000fd5b505050506040513d6020811015611d0257600080fd5b810190808051906020019092919050505090508073ffffffffffffffffffffffffffffffffffffffff166359e94862866040518263ffffffff1660e01b81526004018082815260200191505060206040518083038186803b158015611d6657600080fd5b505afa158015611d7a573d6000803e3d6000fd5b505050506040513d6020811015611d9057600080fd5b81019080805190602001909291905050509250506121d1565b600073ffffffffffffffffffffffffffffffffffffffff168573ffffffffffffffffffffffffffffffffffffffff161480611e23575073eeeeeeeeeeeeeeeeeeeeeeeeeeeeeeeeeeeeeeee73ffffffffffffffffffffffffffffffffffffffff168573ffffffffffffffffffffffffffffffffffffffff16145b15611f625760008173ffffffffffffffffffffffffffffffffffffffff166306f2bf62886040518263ffffffff1660e01b8152600401808273ffffffffffffffffffffffffffffffffffffffff16815260200191505060206040518083038186803b158015611e9157600080fd5b505afa158015611ea5573d6000803e3d6000fd5b505050506040513d6020811015611ebb57600080fd5b810190808051906020019092919050505090508073ffffffffffffffffffffffffffffffffffffffff16632640f62c866040518263ffffffff1660e01b81526004018082815260200191505060206040518083038186803b158015611f1f57600080fd5b505afa158015611f33573d6000803e3d6000fd5b505050506040513d6020811015611f4957600080fd5b81019080805190602001909291905050509250506121d0565b60008173ffffffffffffffffffffffffffffffffffffffff166306f2bf62886040518263ffffffff1660e01b8152600401808273ffffffffffffffffffffffffffffffffffffffff16815260200191505060206040518083038186803b158015611fcb57600080fd5b505afa158015611fdf573d6000803e3d6000fd5b505050506040513d6020811015611ff557600080fd5b8101908080519060200190929190505050905060008273ffffffffffffffffffffffffffffffffffffffff166306f2bf62886040518263ffffffff1660e01b8152600401808273ffffffffffffffffffffffffffffffffffffffff16815260200191505060206040518083038186803b15801561207157600080fd5b505afa158015612085573d6000803e3d6000fd5b505050506040513d602081101561209b57600080fd5b8101908080519060200190929190505050905060008173ffffffffffffffffffffffffffffffffffffffff166359e94862886040518263ffffffff1660e01b81526004018082815260200191505060206040518083038186803b15801561210157600080fd5b505afa158015612115573d6000803e3d6000fd5b505050506040513d602081101561212b57600080fd5b810190808051906020019092919050505090508273ffffffffffffffffffffffffffffffffffffffff16632640f62c826040518263ffffffff1660e01b81526004018082815260200191505060206040518083038186803b15801561218f57600080fd5b505afa1580156121a3573d6000803e3d6000fd5b505050506040513d60208110156121b957600080fd5b810190808051906020019092919050505094505050505b5b50612767565b737a250d5630b4cf539739df2c5dacb4c659f2488d73ffffffffffffffffffffffffffffffffffffffff168673ffffffffffffffffffffffffffffffffffffffff1614156126f8576000737a250d5630b4cf539739df2c5dacb4c659f2488d90506060600267ffffffffffffffff8111801561225257600080fd5b506040519080825280602002602001820160405280156122815781602001602082028036833780820191505090505b509050600073ffffffffffffffffffffffffffffffffffffffff168773ffffffffffffffffffffffffffffffffffffffff1614806122fe575073eeeeeeeeeeeeeeeeeeeeeeeeeeeeeeeeeeeeeeee73ffffffffffffffffffffffffffffffffffffffff168773ffffffffffffffffffffffffffffffffffffffff16145b156123ac5773c02aaa39b223fe8d0a0e5c4f27ead9083c756cc28160008151811061232557fe5b602002602001019073ffffffffffffffffffffffffffffffffffffffff16908173ffffffffffffffffffffffffffffffffffffffff1681525050858160018151811061236d57fe5b602002602001019073ffffffffffffffffffffffffffffffffffffffff16908173ffffffffffffffffffffffffffffffffffffffff1681525050612566565b600073ffffffffffffffffffffffffffffffffffffffff168673ffffffffffffffffffffffffffffffffffffffff161480612426575073eeeeeeeeeeeeeeeeeeeeeeeeeeeeeeeeeeeeeeee73ffffffffffffffffffffffffffffffffffffffff168673ffffffffffffffffffffffffffffffffffffffff16145b156124d457868160008151811061243957fe5b602002602001019073ffffffffffffffffffffffffffffffffffffffff16908173ffffffffffffffffffffffffffffffffffffffff168152505073c02aaa39b223fe8d0a0e5c4f27ead9083c756cc28160018151811061249557fe5b602002602001019073ffffffffffffffffffffffffffffffffffffffff16908173ffffffffffffffffffffffffffffffffffffffff1681525050612565565b86816000815181106124e257fe5b602002602001019073ffffffffffffffffffffffffffffffffffffffff16908173ffffffffffffffffffffffffffffffffffffffff1681525050858160018151811061252a57fe5b602002602001019073ffffffffffffffffffffffffffffffffffffffff16908173ffffffffffffffffffffffffffffffffffffffff16815250505b5b60608273ffffffffffffffffffffffffffffffffffffffff16631f00ca7487846040518363ffffffff1660e01b81526004018083815260200180602001828103825283818151815260200191508051906020019060200280838360005b838110156125de5780820151818401526020810190506125c3565b50505050905001935050505060006040518083038186803b15801561260257600080fd5b505afa158015612616573d6000803e3d6000fd5b505050506040513d6000823e3d601f19601f82011682018060405250602081101561264057600080fd5b810190808051604051939291908464010000000082111561266057600080fd5b8382019150602082018581111561267657600080fd5b825186602082028301116401000000008211171561269357600080fd5b8083526020830192505050908051906020019060200280838360005b838110156126ca5780820151818401526020810190506126af565b505050509050016040525050509050806000815181106126e657fe5b60200260200101519350505050612766565b6040517f08c379a00000000000000000000000000000000000000000000000000000000081526004018080602001828103825260188152602001807f556e737570706f72746564206d616b657241646472657373000000000000000081525060200191505060405180910390fd5b5b5b80915050949350505050565b73c0a47dfe034b400b47bdad5fecda2621de6c4d9581565b600060026000541415612807576040517f08c379a000000000000000000000000000000000000000000000000000000000815260040180806020018281038252601f8152602001807f5265656e7472616e637947756172643a207265656e7472616e742063616c6c0081525060200191505060405180910390fd5b600260008190555060008790506000879050600089905060008b9050600073ffffffffffffffffffffffffffffffffffffffff168b73ffffffffffffffffffffffffffffffffffffffff16148061289d575073eeeeeeeeeeeeeeeeeeeeeeeeeeeeeeeeeeeeeeee73ffffffffffffffffffffffffffffffffffffffff168b73ffffffffffffffffffffffffffffffffffffffff16145b1561298e5760003411612918576040517f08c379a00000000000000000000000000000000000000000000000000000000081526004018080602001828103825260118152602001807f6d73672e76616c7565206973207a65726f00000000000000000000000000000081525060200191505060405180910390fd5b34891461298d576040517f08c379a00000000000000000000000000000000000000000000000000000000081526004018080602001828103825260178152602001807f6d73672e76616c756520646f65736e2774206d6174636800000000000000000081525060200191505060405180910390fd5b5b73c0a47dfe034b400b47bdad5fecda2621de6c4d9573ffffffffffffffffffffffffffffffffffffffff168c73ffffffffffffffffffffffffffffffffffffffff1614158015612a545750600073ffffffffffffffffffffffffffffffffffffffff168b73ffffffffffffffffffffffffffffffffffffffff161480612a53575073eeeeeeeeeeeeeeeeeeeeeeeeeeeeeeeeeeeeeeee73ffffffffffffffffffffffffffffffffffffffff168b73ffffffffffffffffffffffffffffffffffffffff16145b5b15612ae95773c02aaa39b223fe8d0a0e5c4f27ead9083c756cc273ffffffffffffffffffffffffffffffffffffffff1663d0e30db0346040518263ffffffff1660e01b81526004016000604051808303818588803b158015612ab557600080fd5b505af1158015612ac9573d6000803e3d6000fd5b505050505073c02aaa39b223fe8d0a0e5c4f27ead9083c756cc293508391505b73c0a47dfe034b400b47bdad5fecda2621de6c4d9573ffffffffffffffffffffffffffffffffffffffff168c73ffffffffffffffffffffffffffffffffffffffff1614158015612baf5750600073ffffffffffffffffffffffffffffffffffffffff168a73ffffffffffffffffffffffffffffffffffffffff161480612bae575073eeeeeeeeeeeeeeeeeeeeeeeeeeeeeeeeeeeeeeee73ffffffffffffffffffffffffffffffffffffffff168a73ffffffffffffffffffffffffffffffffffffffff16145b5b15612bcc5773c02aaa39b223fe8d0a0e5c4f27ead9083c756cc292505b73c0a47dfe034b400b47bdad5fecda2621de6c4d9573ffffffffffffffffffffffffffffffffffffffff168c73ffffffffffffffffffffffffffffffffffffffff161415612cd357600073c0a47dfe034b400b47bdad5fecda2621de6c4d9590508073ffffffffffffffffffffffffffffffffffffffff166306f2bf628d6040518263ffffffff1660e01b8152600401808273ffffffffffffffffffffffffffffffffffffffff16815260200191505060206040518083038186803b158015612c9457600080fd5b505afa158015612ca8573d6000803e3d6000fd5b505050506040513d6020811015612cbe57600080fd5b81019080805190602001909291905050509150505b73c0a47dfe034b400b47bdad5fecda2621de6c4d9573ffffffffffffffffffffffffffffffffffffffff168c73ffffffffffffffffffffffffffffffffffffffff16141580612de6575073c0a47dfe034b400b47bdad5fecda2621de6c4d9573ffffffffffffffffffffffffffffffffffffffff168c73ffffffffffffffffffffffffffffffffffffffff16148015612de55750600073ffffffffffffffffffffffffffffffffffffffff168b73ffffffffffffffffffffffffffffffffffffffff1614158015612de4575073eeeeeeeeeeeeeeeeeeeeeeeeeeeeeeeeeeeeeeee73ffffffffffffffffffffffffffffffffffffffff168b73ffffffffffffffffffffffffffffffffffffffff1614155b5b5b15612e1757612e16818a8473ffffffffffffffffffffffffffffffffffffffff166133a49092919063ffffffff16565b5b6000600160008e73ffffffffffffffffffffffffffffffffffffffff1673ffffffffffffffffffffffffffffffffffffffff16815260200190815260200160002060008673ffffffffffffffffffffffffffffffffffffffff1673ffffffffffffffffffffffffffffffffffffffff16815260200190815260200160002060009054906101000a9004600f0b600f0b141580612f4057506000600160008e73ffffffffffffffffffffffffffffffffffffffff1673ffffffffffffffffffffffffffffffffffffffff16815260200190815260200160002060008573ffffffffffffffffffffffffffffffffffffffff1673ffffffffffffffffffffffffffffffffffffffff16815260200190815260200160002060009054906101000a9004600f0b600f0b14155b15613075576000600160008e73ffffffffffffffffffffffffffffffffffffffff1673ffffffffffffffffffffffffffffffffffffffff16815260200190815260200160002060008673ffffffffffffffffffffffffffffffffffffffff1673ffffffffffffffffffffffffffffffffffffffff16815260200190815260200160002060009054906101000a9004600f0b90506000600160008f73ffffffffffffffffffffffffffffffffffffffff1673ffffffffffffffffffffffffffffffffffffffff16815260200190815260200160002060008673ffffffffffffffffffffffffffffffffffffffff1673ffffffffffffffffffffffffffffffffffffffff16815260200190815260200160002060009054906101000a9004600f0b905061306e8e83838e8e61351d565b505061319b565b73c0a47dfe034b400b47bdad5fecda2621de6c4d9573ffffffffffffffffffffffffffffffffffffffff168c73ffffffffffffffffffffffffffffffffffffffff1614156130d0576130ca8b8b8b8b8a6135b3565b5061319a565b737a250d5630b4cf539739df2c5dacb4c659f2488d73ffffffffffffffffffffffffffffffffffffffff168c73ffffffffffffffffffffffffffffffffffffffff16141561312b5761312584848b8b8a6136fb565b50613199565b6040517f08c379a00000000000000000000000000000000000000000000000000000000081526004018080602001828103825260188152602001807f556e737570706f72746564206d616b657241646472657373000000000000000081525060200191505060405180910390fd5b5b5b73c0a47dfe034b400b47bdad5fecda2621de6c4d9573ffffffffffffffffffffffffffffffffffffffff168c73ffffffffffffffffffffffffffffffffffffffff161415806132ae575073c0a47dfe034b400b47bdad5fecda2621de6c4d9573ffffffffffffffffffffffffffffffffffffffff168c73ffffffffffffffffffffffffffffffffffffffff161480156132ad5750600073ffffffffffffffffffffffffffffffffffffffff168b73ffffffffffffffffffffffffffffffffffffffff16141580156132ac575073eeeeeeeeeeeeeeeeeeeeeeeeeeeeeeeeeeeeeeee73ffffffffffffffffffffffffffffffffffffffff168b73ffffffffffffffffffffffffffffffffffffffff1614155b5b5b156132e0576132df8160008473ffffffffffffffffffffffffffffffffffffffff166139b79092919063ffffffff16565b5b60006132ee8d8c8b8b613b7c565b90507f6782190c91d4a7e8ad2a867deed6ec0a970cab8ff137ae2bd4abd92b3810f4d3888d8d8d85604051808673ffffffffffffffffffffffffffffffffffffffff1681526020018573ffffffffffffffffffffffffffffffffffffffff1681526020018473ffffffffffffffffffffffffffffffffffffffff1681526020018381526020018281526020019550505050505060405180910390a180955050505050506001600081905550979650505050505050565b6000613478828573ffffffffffffffffffffffffffffffffffffffff1663dd62ed3e30876040518363ffffffff1660e01b8152600401808373ffffffffffffffffffffffffffffffffffffffff1681526020018273ffffffffffffffffffffffffffffffffffffffff1681526020019250505060206040518083038186803b15801561342f57600080fd5b505afa158015613443573d6000803e3d6000fd5b505050506040513d602081101561345957600080fd5b810190808051906020019092919050505061421d90919063ffffffff16565b90506135178463095ea7b360e01b8584604051602401808373ffffffffffffffffffffffffffffffffffffffff16815260200182815260200192505050604051602081830303815290604052907bffffffffffffffffffffffffffffffffffffffffffffffffffffffff19166020820180517bffffffffffffffffffffffffffffffffffffffffffffffffffffffff83818316178352505050506142a5565b50505050565b60008590508073ffffffffffffffffffffffffffffffffffffffff1663a6417ed6868686866040518563ffffffff1660e01b81526004018085600f0b815260200184600f0b8152602001838152602001828152602001945050505050600060405180830381600087803b15801561359357600080fd5b505af11580156135a7573d6000803e3d6000fd5b50505050505050505050565b60008060009050600073ffffffffffffffffffffffffffffffffffffffff168773ffffffffffffffffffffffffffffffffffffffff161480613634575073eeeeeeeeeeeeeeeeeeeeeeeeeeeeeeeeeeeeeeee73ffffffffffffffffffffffffffffffffffffffff168773ffffffffffffffffffffffffffffffffffffffff16145b1561364b57613644868585614394565b90506136ee565b600073ffffffffffffffffffffffffffffffffffffffff168673ffffffffffffffffffffffffffffffffffffffff1614806136c5575073eeeeeeeeeeeeeeeeeeeeeeeeeeeeeeeeeeeeeeee73ffffffffffffffffffffffffffffffffffffffff168673ffffffffffffffffffffffffffffffffffffffff16145b156136dd576136d6878686866144fc565b90506136ed565b6136ea878787878761466c565b90505b5b8091505095945050505050565b600080737a250d5630b4cf539739df2c5dacb4c659f2488d90506060600267ffffffffffffffff8111801561372f57600080fd5b5060405190808252806020026020018201604052801561375e5781602001602082028036833780820191505090505b509050878160008151811061376f57fe5b602002602001019073ffffffffffffffffffffffffffffffffffffffff16908173ffffffffffffffffffffffffffffffffffffffff168152505086816001815181106137b757fe5b602002602001019073ffffffffffffffffffffffffffffffffffffffff16908173ffffffffffffffffffffffffffffffffffffffff168152505060608273ffffffffffffffffffffffffffffffffffffffff166338ed1739888885308a6040518663ffffffff1660e01b815260040180868152602001858152602001806020018473ffffffffffffffffffffffffffffffffffffffff168152602001838152602001828103825285818151815260200191508051906020019060200280838360005b83811015613894578082015181840152602081019050613879565b505050509050019650505050505050600060405180830381600087803b1580156138bd57600080fd5b505af11580156138d1573d6000803e3d6000fd5b505050506040513d6000823e3d601f19601f8201168201806040525060208110156138fb57600080fd5b810190808051604051939291908464010000000082111561391b57600080fd5b8382019150602082018581111561393157600080fd5b825186602082028301116401000000008211171561394e57600080fd5b8083526020830192505050908051906020019060200280838360005b8381101561398557808201518184015260208101905061396a565b505050509050016040525050509050806001815181106139a157fe5b6020026020010151935050505095945050505050565b6000811480613a85575060008373ffffffffffffffffffffffffffffffffffffffff1663dd62ed3e30856040518363ffffffff1660e01b8152600401808373ffffffffffffffffffffffffffffffffffffffff1681526020018273ffffffffffffffffffffffffffffffffffffffff1681526020019250505060206040518083038186803b158015613a4857600080fd5b505afa158015613a5c573d6000803e3d6000fd5b505050506040513d6020811015613a7257600080fd5b8101908080519060200190929190505050145b613ada576040517f08c379a0000000000000000000000000000000000000000000000000000000008152600401808060200182810382526036815260200180614c196036913960400191505060405180910390fd5b613b778363095ea7b360e01b8484604051602401808373ffffffffffffffffffffffffffffffffffffffff16815260200182815260200192505050604051602081830303815290604052907bffffffffffffffffffffffffffffffffffffffffffffffffffffffff19166020820180517bffffffffffffffffffffffffffffffffffffffffffffffffffffffff83818316178352505050506142a5565b505050565b6000806000905073c0a47dfe034b400b47bdad5fecda2621de6c4d9573ffffffffffffffffffffffffffffffffffffffff168673ffffffffffffffffffffffffffffffffffffffff16148015613c485750600073ffffffffffffffffffffffffffffffffffffffff168573ffffffffffffffffffffffffffffffffffffffff161480613c47575073eeeeeeeeeeeeeeeeeeeeeeeeeeeeeeeeeeeeeeee73ffffffffffffffffffffffffffffffffffffffff168573ffffffffffffffffffffffffffffffffffffffff16145b5b15613dac5747905083811015613cc6576040517f08c379a000000000000000000000000000000000000000000000000000000000815260040180806020018281038252600e8152602001807f4e6f7420656e6f7567682045544800000000000000000000000000000000000081525060200191505060405180910390fd5b60008373ffffffffffffffffffffffffffffffffffffffff1661753083604051806000019050600060405180830381858888f193505050503d8060008114613d2a576040519150601f19603f3d011682016040523d82523d6000602084013e613d2f565b606091505b5050905080613da6576040517f08c379a00000000000000000000000000000000000000000000000000000000081526004018080602001828103825260188152602001807f4661696c656420746f207472616e736665722066756e6473000000000000000081525060200191505060405180910390fd5b50614211565b600073ffffffffffffffffffffffffffffffffffffffff168573ffffffffffffffffffffffffffffffffffffffff161480613e26575073eeeeeeeeeeeeeeeeeeeeeeeeeeeeeeeeeeeeeeee73ffffffffffffffffffffffffffffffffffffffff168573ffffffffffffffffffffffffffffffffffffffff16145b156140c457600073c02aaa39b223fe8d0a0e5c4f27ead9083c756cc2905073c02aaa39b223fe8d0a0e5c4f27ead9083c756cc273ffffffffffffffffffffffffffffffffffffffff16632e1a7d4d8273ffffffffffffffffffffffffffffffffffffffff166370a08231306040518263ffffffff1660e01b8152600401808273ffffffffffffffffffffffffffffffffffffffff16815260200191505060206040518083038186803b158015613edb57600080fd5b505afa158015613eef573d6000803e3d6000fd5b505050506040513d6020811015613f0557600080fd5b81019080805190602001909291905050506040518263ffffffff1660e01b815260040180828152602001915050600060405180830381600087803b158015613f4c57600080fd5b505af1158015613f60573d6000803e3d6000fd5b5050505047915084821015613fdd576040517f08c379a000000000000000000000000000000000000000000000000000000000815260040180806020018281038252600e8152602001807f4e6f7420656e6f7567682045544800000000000000000000000000000000000081525060200191505060405180910390fd5b60008473ffffffffffffffffffffffffffffffffffffffff1661753084604051806000019050600060405180830381858888f193505050503d8060008114614041576040519150601f19603f3d011682016040523d82523d6000602084013e614046565b606091505b50509050806140bd576040517f08c379a00000000000000000000000000000000000000000000000000000000081526004018080602001828103825260188152602001807f4661696c656420746f207472616e736665722066756e6473000000000000000081525060200191505060405180910390fd5b5050614210565b60008590508073ffffffffffffffffffffffffffffffffffffffff166370a08231306040518263ffffffff1660e01b8152600401808273ffffffffffffffffffffffffffffffffffffffff16815260200191505060206040518083038186803b15801561413057600080fd5b505afa158015614144573d6000803e3d6000fd5b505050506040513d602081101561415a57600080fd5b81019080805190602001909291905050509150848210156141e3576040517f08c379a00000000000000000000000000000000000000000000000000000000081526004018080602001828103825260108152602001807f4e6f7420656e6f75676820746f6b656e0000000000000000000000000000000081525060200191505060405180910390fd5b61420e84838373ffffffffffffffffffffffffffffffffffffffff1661491b9092919063ffffffff16565b505b5b80915050949350505050565b60008082840190508381101561429b576040517f08c379a000000000000000000000000000000000000000000000000000000000815260040180806020018281038252601b8152602001807f536166654d6174683a206164646974696f6e206f766572666c6f77000000000081525060200191505060405180910390fd5b8091505092915050565b6060614307826040518060400160405280602081526020017f5361666545524332303a206c6f772d6c6576656c2063616c6c206661696c65648152508573ffffffffffffffffffffffffffffffffffffffff166149bd9092919063ffffffff16565b905060008151111561438f5780806020019051602081101561432857600080fd5b810190808051906020019092919050505061438e576040517f08c379a000000000000000000000000000000000000000000000000000000000815260040180806020018281038252602a815260200180614bef602a913960400191505060405180910390fd5b5b505050565b60008073c0a47dfe034b400b47bdad5fecda2621de6c4d95905060008173ffffffffffffffffffffffffffffffffffffffff166306f2bf62876040518263ffffffff1660e01b8152600401808273ffffffffffffffffffffffffffffffffffffffff16815260200191505060206040518083038186803b15801561441757600080fd5b505afa15801561442b573d6000803e3d6000fd5b505050506040513d602081101561444157600080fd5b8101908080519060200190929190505050905060008173ffffffffffffffffffffffffffffffffffffffff1663f39b5b9b4788886040518463ffffffff1660e01b815260040180838152602001828152602001925050506020604051808303818588803b1580156144b157600080fd5b505af11580156144c5573d6000803e3d6000fd5b50505050506040513d60208110156144dc57600080fd5b810190808051906020019092919050505090508093505050509392505050565b60008073c0a47dfe034b400b47bdad5fecda2621de6c4d95905060008173ffffffffffffffffffffffffffffffffffffffff166306f2bf62886040518263ffffffff1660e01b8152600401808273ffffffffffffffffffffffffffffffffffffffff16815260200191505060206040518083038186803b15801561457f57600080fd5b505afa158015614593573d6000803e3d6000fd5b505050506040513d60208110156145a957600080fd5b8101908080519060200190929190505050905060008173ffffffffffffffffffffffffffffffffffffffff166395e3c50b8888886040518463ffffffff1660e01b8152600401808481526020018381526020018281526020019350505050602060405180830381600087803b15801561462157600080fd5b505af1158015614635573d6000803e3d6000fd5b505050506040513d602081101561464b57600080fd5b81019080805190602001909291905050509050809350505050949350505050565b60008073c0a47dfe034b400b47bdad5fecda2621de6c4d95905060008173ffffffffffffffffffffffffffffffffffffffff166306f2bf62896040518263ffffffff1660e01b8152600401808273ffffffffffffffffffffffffffffffffffffffff16815260200191505060206040518083038186803b1580156146ef57600080fd5b505afa158015614703573d6000803e3d6000fd5b505050506040513d602081101561471957600080fd5b8101908080519060200190929190505050905060008173ffffffffffffffffffffffffffffffffffffffff166395e3c50b886001886040518463ffffffff1660e01b8152600401808481526020018381526020018281526020019350505050602060405180830381600087803b15801561479257600080fd5b505af11580156147a6573d6000803e3d6000fd5b505050506040513d60208110156147bc57600080fd5b8101908080519060200190929190505050905060008373ffffffffffffffffffffffffffffffffffffffff166306f2bf628a6040518263ffffffff1660e01b8152600401808273ffffffffffffffffffffffffffffffffffffffff16815260200191505060206040518083038186803b15801561483857600080fd5b505afa15801561484c573d6000803e3d6000fd5b505050506040513d602081101561486257600080fd5b810190808051906020019092919050505073ffffffffffffffffffffffffffffffffffffffff1663f39b5b9b8389896040518463ffffffff1660e01b815260040180838152602001828152602001925050506020604051808303818588803b1580156148cd57600080fd5b505af11580156148e1573d6000803e3d6000fd5b50505050506040513d60208110156148f857600080fd5b810190808051906020019092919050505090508094505050505095945050505050565b6149b88363a9059cbb60e01b8484604051602401808373ffffffffffffffffffffffffffffffffffffffff16815260200182815260200192505050604051602081830303815290604052907bffffffffffffffffffffffffffffffffffffffffffffffffffffffff19166020820180517bffffffffffffffffffffffffffffffffffffffffffffffffffffffff83818316178352505050506142a5565b505050565b60606149cc84846000856149d5565b90509392505050565b60606149e085614bdb565b614a52576040517f08c379a000000000000000000000000000000000000000000000000000000000815260040180806020018281038252601d8152602001807f416464726573733a2063616c6c20746f206e6f6e2d636f6e747261637400000081525060200191505060405180910390fd5b600060608673ffffffffffffffffffffffffffffffffffffffff1685876040518082805190602001908083835b60208310614aa25780518252602082019150602081019050602083039250614a7f565b6001836020036101000a03801982511681845116808217855250505050505090500191505060006040518083038185875af1925050503d8060008114614b04576040519150601f19603f3d011682016040523d82523d6000602084013e614b09565b606091505b50915091508115614b1e578092505050614bd3565b600081511115614b315780518082602001fd5b836040517f08c379a00000000000000000000000000000000000000000000000000000000081526004018080602001828103825283818151815260200191508051906020019080838360005b83811015614b98578082015181840152602081019050614b7d565b50505050905090810190601f168015614bc55780820380516001836020036101000a031916815260200191505b509250505060405180910390fd5b949350505050565b600080823b90506000811191505091905056fe5361666545524332303a204552433230206f7065726174696f6e20646964206e6f7420737563636565645361666545524332303a20617070726f76652066726f6d206e6f6e2d7a65726f20746f206e6f6e2d7a65726f20616c6c6f77616e6365a2646970667358221220fe4c44f44bada4e4c675167b1b189703d0880a8e911219d055722da1adadea7564736f6c634300060c0033",
  "linkReferences": {},
  "deployedLinkReferences": {}
}